{
  "contractName": "AuctionStore",
  "abi": [
    {
      "inputs": [],
      "payable": false,
      "stateMutability": "nonpayable",
      "type": "constructor"
    },
    {
      "constant": false,
      "inputs": [
        {
          "name": "_name",
          "type": "string"
        },
        {
          "name": "_class",
          "type": "string"
        },
        {
          "name": "_imageHash",
          "type": "string"
        },
        {
          "name": "_descHash",
          "type": "string"
        },
        {
          "name": "_start",
          "type": "uint256"
        },
        {
          "name": "_end",
          "type": "uint256"
        },
        {
          "name": "_initPrice",
          "type": "uint256"
        }
      ],
      "name": "addProduct",
      "outputs": [],
      "payable": false,
      "stateMutability": "nonpayable",
      "type": "function"
    },
    {
      "constant": true,
      "inputs": [
        {
          "name": "_productID",
          "type": "uint256"
        }
      ],
      "name": "getProduct",
      "outputs": [
        {
          "name": "",
          "type": "uint256"
        },
        {
          "name": "",
          "type": "string"
        },
        {
          "name": "",
          "type": "string"
        },
        {
          "name": "",
          "type": "uint8"
        },
        {
          "name": "",
          "type": "string"
        },
        {
          "name": "",
          "type": "string"
        },
        {
          "name": "",
          "type": "uint256"
        },
        {
          "name": "",
          "type": "uint256"
        },
        {
          "name": "",
          "type": "uint256"
        }
      ],
      "payable": false,
      "stateMutability": "view",
      "type": "function"
    },
    {
      "constant": false,
      "inputs": [
        {
          "name": "_productID",
          "type": "uint256"
        },
        {
          "name": "_password",
          "type": "string"
        }
      ],
      "name": "bidProduct",
      "outputs": [
        {
          "name": "",
          "type": "bool"
        }
      ],
      "payable": true,
      "stateMutability": "payable",
      "type": "function"
    },
    {
      "constant": false,
      "inputs": [
        {
          "name": "_productID",
          "type": "uint256"
        },
        {
          "name": "_password",
          "type": "string"
        }
      ],
      "name": "revealBid",
      "outputs": [],
      "payable": false,
      "stateMutability": "nonpayable",
      "type": "function"
    },
    {
      "constant": false,
      "inputs": [
        {
          "name": "_productID",
          "type": "uint256"
        }
      ],
      "name": "endAuction",
      "outputs": [],
      "payable": false,
      "stateMutability": "nonpayable",
      "type": "function"
    },
    {
      "constant": true,
      "inputs": [
        {
          "name": "_productID",
          "type": "uint256"
        }
      ],
      "name": "getBidNum",
      "outputs": [
        {
          "name": "count",
          "type": "uint256"
        }
      ],
      "payable": false,
      "stateMutability": "view",
      "type": "function"
    },
    {
      "constant": true,
      "inputs": [
        {
          "name": "_productID",
          "type": "uint256"
        }
      ],
      "name": "getBuyer",
      "outputs": [
        {
          "name": "buyer",
          "type": "address"
        },
        {
          "name": "askingPrice",
          "type": "uint256"
        },
        {
          "name": "paidPrice",
          "type": "uint256"
        }
      ],
      "payable": false,
      "stateMutability": "view",
      "type": "function"
    },
    {
      "constant": true,
      "inputs": [],
      "name": "getProductNum",
      "outputs": [
        {
          "name": "",
          "type": "uint256"
        }
      ],
      "payable": false,
      "stateMutability": "view",
      "type": "function"
    }
  ],
  "bytecode": "0x608060405234801561001057600080fd5b506000808190555061238e806100276000396000f30060806040526004361061008e576000357c0100000000000000000000000000000000000000000000000000000000900463ffffffff1680632163b8c5146100935780635afdd3f8146101065780635bf608b81461025f5780636a7c0a90146102da5780636d0c9ccc14610305578063b9a2de3a14610383578063b9db15b4146103b0578063e0356ebd146105cb575b600080fd5b34801561009f57600080fd5b5061010460048036038101908080359060200190929190803590602001908201803590602001908080601f016020809104026020016040519081016040528093929190818152602001838380828437820191505050505050919291929050505061060c565b005b34801561011257600080fd5b5061025d600480360381019080803590602001908201803590602001908080601f0160208091040260200160405190810160405280939291908181526020018383808284378201915050505050509192919290803590602001908201803590602001908080601f0160208091040260200160405190810160405280939291908181526020018383808284378201915050505050509192919290803590602001908201803590602001908080601f0160208091040260200160405190810160405280939291908181526020018383808284378201915050505050509192919290803590602001908201803590602001908080601f0160208091040260200160405190810160405280939291908181526020018383808284378201915050505050509192919290803590602001909291908035906020019092919080359060200190929190505050610c1d565b005b34801561026b57600080fd5b5061028a60048036038101908080359060200190929190505050610f0c565b604051808473ffffffffffffffffffffffffffffffffffffffff1673ffffffffffffffffffffffffffffffffffffffff168152602001838152602001828152602001935050505060405180910390f35b3480156102e657600080fd5b506102ef611349565b6040518082815260200191505060405180910390f35b61036960048036038101908080359060200190929190803590602001908201803590602001908080601f0160208091040260200160405190810160405280939291908181526020018383808284378201915050505050509192919290505050611352565b604051808215151515815260200191505060405180910390f35b34801561038f57600080fd5b506103ae60048036038101908080359060200190929190505050611781565b005b3480156103bc57600080fd5b506103db60048036038101908080359060200190929190505050611a65565b604051808a815260200180602001806020018960028111156103f957fe5b60ff168152602001806020018060200188815260200187815260200186815260200185810385528d818151815260200191508051906020019080838360005b83811015610453578082015181840152602081019050610438565b50505050905090810190601f1680156104805780820380516001836020036101000a031916815260200191505b5085810384528c818151815260200191508051906020019080838360005b838110156104b957808201518184015260208101905061049e565b50505050905090810190601f1680156104e65780820380516001836020036101000a031916815260200191505b5085810383528a818151815260200191508051906020019080838360005b8381101561051f578082015181840152602081019050610504565b50505050905090810190601f16801561054c5780820380516001836020036101000a031916815260200191505b50858103825289818151815260200191508051906020019080838360005b8381101561058557808201518184015260208101905061056a565b50505050905090810190601f1680156105b25780820380516001836020036101000a031916815260200191505b509d505050505050505050505050505060405180910390f35b3480156105d757600080fd5b506105f660048036038101908080359060200190929190505050611e53565b6040518082815260200191505060405180910390f35b6000806106176121e8565b6000808360070154421115156106bb576040517f08c379a00000000000000000000000000000000000000000000000000000000081526004018080602001828103825260218152602001807fe8afa5e59586e59381e4bb8de59ca8e7ab9ee6a087efbc8ce8afb7e7ad89e5be81526020017f850000000000000000000000000000000000000000000000000000000000000081525060400191505060405180910390fd5b856040518082805190602001908083835b6020831015156106f157805182526020820191506020810190506020830392506106cc565b6001836020036101000a0380198251168184511680821785525050505050509050019150506040518091039020945060026000888152602001908152602001600020935083600e0160003373ffffffffffffffffffffffffffffffffffffffff1673ffffffffffffffffffffffffffffffffffffffff168152602001908152602001600020608060405190810160405290816000820160009054906101000a900473ffffffffffffffffffffffffffffffffffffffff1673ffffffffffffffffffffffffffffffffffffffff1673ffffffffffffffffffffffffffffffffffffffff168152602001600182015460001916600019168152602001600282015481526020016003820160009054906101000a900460ff16151515158152505092506000836000015173ffffffffffffffffffffffffffffffffffffffff161115156108a3576040517f08c379a000000000000000000000000000000000000000000000000000000000815260040180806020018281038252601e8152602001807fe682a8e69caae58f82e4b88ee8afa5e59586e59381e79a84e7ab9ee6a087000081525060200191505060405180910390fd5b8460001916836020015160001916141515610926576040517f08c379a000000000000000000000000000000000000000000000000000000000815260040180806020018281038252600c8152602001807fe5af86e7a081e99499e8afaf000000000000000000000000000000000000000081525060200191505060405180910390fd5b60001515836060015115151415156109a6576040517f08c379a000000000000000000000000000000000000000000000000000000000815260040180806020018281038252600c8152602001807fe682a8e5b7b2e68fade6a087000000000000000000000000000000000000000081525060200191505060405180910390fd5b8260400151905060008460090160009054906101000a900473ffffffffffffffffffffffffffffffffffffffff1673ffffffffffffffffffffffffffffffffffffffff161415610a5257338460090160006101000a81548173ffffffffffffffffffffffffffffffffffffffff021916908373ffffffffffffffffffffffffffffffffffffffff1602179055508084600a0181905550836008015484600b018190555060009150610b52565b83600a0154811115610b2f578360090160009054906101000a900473ffffffffffffffffffffffffffffffffffffffff1673ffffffffffffffffffffffffffffffffffffffff166108fc85600a01549081150290604051600060405180830381858888f19350505050158015610acc573d6000803e3d6000fd5b50338460090160006101000a81548173ffffffffffffffffffffffffffffffffffffffff021916908373ffffffffffffffffffffffffffffffffffffffff16021790555083600a015484600b01819055508084600a018190555060009150610b51565b83600b0154811115610b4c578084600b0181905550809150610b50565b8091505b5b5b6000821115610ba3573373ffffffffffffffffffffffffffffffffffffffff166108fc839081150290604051600060405180830381858888f19350505050158015610ba1573d6000803e3d6000fd5b505b600184600e0160003373ffffffffffffffffffffffffffffffffffffffff1673ffffffffffffffffffffffffffffffffffffffff16815260200190815260200160002060030160006101000a81548160ff02191690831515021790555083600d016000815480929190600101919050555050505050505050565b610c2561222c565b8284101515610cc2576040517f08c379a000000000000000000000000000000000000000000000000000000000815260040180806020018281038252602a8152602001807fe7ab9ee68b8de5bc80e5a78be697b6e997b4e99c80e8a681e5b08fe4ba8ee7bb81526020017f93e69d9fe697b6e997b40000000000000000000000000000000000000000000081525060400191505060405180910390fd5b60008081548092919060010191905055506101c060405190810160405280600054815260200189815260200188815260200160006002811115610d0157fe5b8152602001878152602001868152602001858152602001848152602001838152602001600073ffffffffffffffffffffffffffffffffffffffff16815260200160008152602001600081526020016000815260200160008152509050806002600080548152602001908152602001600020600082015181600001556020820151816001019080519060200190610d989291906122bd565b506040820151816002019080519060200190610db59291906122bd565b5060608201518160030160006101000a81548160ff02191690836002811115610dda57fe5b02179055506080820151816004019080519060200190610dfb9291906122bd565b5060a0820151816005019080519060200190610e189291906122bd565b5060c0820151816006015560e0820151816007015561010082015181600801556101208201518160090160006101000a81548173ffffffffffffffffffffffffffffffffffffffff021916908373ffffffffffffffffffffffffffffffffffffffff16021790555061014082015181600a015561016082015181600b015561018082015181600c01556101a082015181600d015590505033600160008054815260200190815260200160002060006101000a81548173ffffffffffffffffffffffffffffffffffffffff021916908373ffffffffffffffffffffffffffffffffffffffff1602179055505050505050505050565b6000806000610f1961222c565b600260008681526020019081526020016000206101c0604051908101604052908160008201548152602001600182018054600181600116156101000203166002900480601f016020809104026020016040519081016040528092919081815260200182805460018160011615610100020316600290048015610fdc5780601f10610fb157610100808354040283529160200191610fdc565b820191906000526020600020905b815481529060010190602001808311610fbf57829003601f168201915b50505050508152602001600282018054600181600116156101000203166002900480601f01602080910402602001604051908101604052809291908181526020018280546001816001161561010002031660029004801561107e5780601f106110535761010080835404028352916020019161107e565b820191906000526020600020905b81548152906001019060200180831161106157829003601f168201915b505050505081526020016003820160009054906101000a900460ff1660028111156110a557fe5b60028111156110b057fe5b8152602001600482018054600181600116156101000203166002900480601f01602080910402602001604051908101604052809291908181526020018280546001816001161561010002031660029004801561114d5780601f106111225761010080835404028352916020019161114d565b820191906000526020600020905b81548152906001019060200180831161113057829003601f168201915b50505050508152602001600582018054600181600116156101000203166002900480601f0160208091040260200160405190810160405280929190818152602001828054600181600116156101000203166002900480156111ef5780601f106111c4576101008083540402835291602001916111ef565b820191906000526020600020905b8154815290600101906020018083116111d257829003601f168201915b505050505081526020016006820154815260200160078201548152602001600882015481526020016009820160009054906101000a900473ffffffffffffffffffffffffffffffffffffffff1673ffffffffffffffffffffffffffffffffffffffff1673ffffffffffffffffffffffffffffffffffffffff168152602001600a8201548152602001600b8201548152602001600c8201548152602001600d820154815250509050600060028111156112a357fe5b816060015160028111156112b357fe5b14151515611329576040517f08c379a000000000000000000000000000000000000000000000000000000000815260040180806020018281038252601b8152602001807fe8afa5e59586e59381e5b09ae69caae7bb93e69d9fe4baa4e69893000000000081525060200191505060405180910390fd5b806101200151935080610140015192508061016001519150509193909250565b60008054905090565b6000806000600260008681526020019081526020016000209150836040518082805190602001908083835b6020831015156113a2578051825260208201915060208101905060208303925061137d565b6001836020036101000a038019825116818451168082178552505050505050905001915050604051809103902090508160060154421015151561144d576040517f08c379a000000000000000000000000000000000000000000000000000000000815260040180806020018281038252601b8152602001807fe8afa5e59586e59381e5b09ae69caae5bc80e5a78be7ab9ee68b8d000000000081525060200191505060405180910390fd5b816007015442111515156114c9576040517f08c379a00000000000000000000000000000000000000000000000000000000081526004018080602001828103825260188152602001807fe8afa5e59586e59381e5b7b2e7bb93e69d9fe7ab9ee68b8d000000000000000081525060200191505060405180910390fd5b8160080154341015151561156b576040517f08c379a000000000000000000000000000000000000000000000000000000000815260040180806020018281038252602d8152602001807fe68a95e6a087e79a84e8999ae68b9fe4bbb7e6a0bce4b88de883bde4bd8ee4ba81526020017f8ee69c80e4bd8ee4bbb7e6a0bc0000000000000000000000000000000000000081525060400191505060405180910390fd5b600082600e0160003373ffffffffffffffffffffffffffffffffffffffff1673ffffffffffffffffffffffffffffffffffffffff16815260200190815260200160002060000160009054906101000a900473ffffffffffffffffffffffffffffffffffffffff1673ffffffffffffffffffffffffffffffffffffffff1614151561165d576040517f08c379a00000000000000000000000000000000000000000000000000000000081526004018080602001828103825260188152602001807fe682a8e5b7b2e7bb8fe58f82e4b88ee8bf87e7ab9ee68b8d000000000000000081525060200191505060405180910390fd5b6080604051908101604052803373ffffffffffffffffffffffffffffffffffffffff168152602001826000191681526020013481526020016000151581525082600e0160003373ffffffffffffffffffffffffffffffffffffffff1673ffffffffffffffffffffffffffffffffffffffff16815260200190815260200160002060008201518160000160006101000a81548173ffffffffffffffffffffffffffffffffffffffff021916908373ffffffffffffffffffffffffffffffffffffffff160217905550602082015181600101906000191690556040820151816002015560608201518160030160006101000a81548160ff02191690831515021790555090505081600c016000815480929190600101919050555060019250505092915050565b6000600260008381526020019081526020016000209050806007015442111515611839576040517f08c379a00000000000000000000000000000000000000000000000000000000081526004018080602001828103825260218152602001807fe8afa5e59586e59381e4bb8de59ca8e7ab9ee6a087efbc8ce8afb7e7ad89e5be81526020017f850000000000000000000000000000000000000000000000000000000000000081525060400191505060405180910390fd5b6000600281111561184657fe5b8160030160009054906101000a900460ff16600281111561186357fe5b1415156118d8576040517f08c379a00000000000000000000000000000000000000000000000000000000081526004018080602001828103825260188152602001807fe8afa5e59586e59381e5b7b2e7bb93e69d9fe4baa4e69893000000000000000081525060200191505060405180910390fd5b80600c015481600d0154141515611957576040517f08c379a00000000000000000000000000000000000000000000000000000000081526004018080602001828103825260128152602001807fe585ace5918ae5b09ae69caae7bb93e69d9f000000000000000000000000000081525060200191505060405180910390fd5b60008160090160009054906101000a900473ffffffffffffffffffffffffffffffffffffffff1673ffffffffffffffffffffffffffffffffffffffff161115611a3a578060090160009054906101000a900473ffffffffffffffffffffffffffffffffffffffff1673ffffffffffffffffffffffffffffffffffffffff166108fc82600b015483600a0154039081150290604051600060405180830381858888f19350505050158015611a0e573d6000803e3d6000fd5b5060018160030160006101000a81548160ff02191690836002811115611a3057fe5b0217905550611a61565b60028160030160006101000a81548160ff02191690836002811115611a5b57fe5b02179055505b5050565b600060608060006060806000806000611a7c61222c565b600260008c81526020019081526020016000206101c0604051908101604052908160008201548152602001600182018054600181600116156101000203166002900480601f016020809104026020016040519081016040528092919081815260200182805460018160011615610100020316600290048015611b3f5780601f10611b1457610100808354040283529160200191611b3f565b820191906000526020600020905b815481529060010190602001808311611b2257829003601f168201915b50505050508152602001600282018054600181600116156101000203166002900480601f016020809104026020016040519081016040528092919081815260200182805460018160011615610100020316600290048015611be15780601f10611bb657610100808354040283529160200191611be1565b820191906000526020600020905b815481529060010190602001808311611bc457829003601f168201915b505050505081526020016003820160009054906101000a900460ff166002811115611c0857fe5b6002811115611c1357fe5b8152602001600482018054600181600116156101000203166002900480601f016020809104026020016040519081016040528092919081815260200182805460018160011615610100020316600290048015611cb05780601f10611c8557610100808354040283529160200191611cb0565b820191906000526020600020905b815481529060010190602001808311611c9357829003601f168201915b50505050508152602001600582018054600181600116156101000203166002900480601f016020809104026020016040519081016040528092919081815260200182805460018160011615610100020316600290048015611d525780601f10611d2757610100808354040283529160200191611d52565b820191906000526020600020905b815481529060010190602001808311611d3557829003601f168201915b505050505081526020016006820154815260200160078201548152602001600882015481526020016009820160009054906101000a900473ffffffffffffffffffffffffffffffffffffffff1673ffffffffffffffffffffffffffffffffffffffff1673ffffffffffffffffffffffffffffffffffffffff168152602001600a8201548152602001600b8201548152602001600c8201548152602001600d820154815250509050806000015181602001518260400151836060015184608001518560a001518660c001518760e00151886101000151879750869650849450839350995099509950995099509950995099509950509193959799909294969850565b6000611e5d61222c565b600260008481526020019081526020016000206101c0604051908101604052908160008201548152602001600182018054600181600116156101000203166002900480601f016020809104026020016040519081016040528092919081815260200182805460018160011615610100020316600290048015611f205780601f10611ef557610100808354040283529160200191611f20565b820191906000526020600020905b815481529060010190602001808311611f0357829003601f168201915b50505050508152602001600282018054600181600116156101000203166002900480601f016020809104026020016040519081016040528092919081815260200182805460018160011615610100020316600290048015611fc25780601f10611f9757610100808354040283529160200191611fc2565b820191906000526020600020905b815481529060010190602001808311611fa557829003601f168201915b505050505081526020016003820160009054906101000a900460ff166002811115611fe957fe5b6002811115611ff457fe5b8152602001600482018054600181600116156101000203166002900480601f0160208091040260200160405190810160405280929190818152602001828054600181600116156101000203166002900480156120915780601f1061206657610100808354040283529160200191612091565b820191906000526020600020905b81548152906001019060200180831161207457829003601f168201915b50505050508152602001600582018054600181600116156101000203166002900480601f0160208091040260200160405190810160405280929190818152602001828054600181600116156101000203166002900480156121335780601f1061210857610100808354040283529160200191612133565b820191906000526020600020905b81548152906001019060200180831161211657829003601f168201915b505050505081526020016006820154815260200160078201548152602001600882015481526020016009820160009054906101000a900473ffffffffffffffffffffffffffffffffffffffff1673ffffffffffffffffffffffffffffffffffffffff1673ffffffffffffffffffffffffffffffffffffffff168152602001600a8201548152602001600b8201548152602001600c8201548152602001600d820154815250509050806101800151915050919050565b608060405190810160405280600073ffffffffffffffffffffffffffffffffffffffff16815260200160008019168152602001600081526020016000151581525090565b6101c0604051908101604052806000815260200160608152602001606081526020016000600281111561225b57fe5b81526020016060815260200160608152602001600081526020016000815260200160008152602001600073ffffffffffffffffffffffffffffffffffffffff168152602001600081526020016000815260200160008152602001600081525090565b828054600181600116156101000203166002900490600052602060002090601f016020900481019282601f106122fe57805160ff191683800117855561232c565b8280016001018555821561232c579182015b8281111561232b578251825591602001919060010190612310565b5b509050612339919061233d565b5090565b61235f91905b8082111561235b576000816000905550600101612343565b5090565b905600a165627a7a7230582045d561fe131e14a46b4e38d88149abf7ec835212aa3f73ad78ca292dd805a4bd0029",
  "source": "//solium-disable linebreak-style\r\npragma solidity ^0.4.17;\r\n\r\ncontract AuctionStore {\r\n    //  - \r\n    enum Status {\r\n        AVAILABLE,  // \r\n        SOLD,       // \r\n        UNSOLD      // \r\n    }\r\n\r\n    // \r\n    struct Product{\r\n        uint id;                    // ID\r\n\r\n        string name;                // \r\n        string classification;      // \r\n        Status status;              // \r\n        string imageHash;           // \r\n        string descriptionHash;     // \r\n\r\n        uint startTime;             // \r\n        uint endTime;               // \r\n        uint initPrice;             // \r\n        address buyer;              // \r\n        uint topPrice;              // \r\n        uint secondPrice;           // \r\n        uint bidNum;                // \r\n        uint revealNum;             // \r\n        mapping(address => Bidder) bidders;    // \r\n    }\r\n\r\n    // \r\n    struct Bidder{\r\n        address addr;       // \r\n        bytes32 pwd;        // \r\n        uint value;         // \r\n        bool revealed;      // \r\n    }\r\n\r\n    uint productCount;  // \r\n    mapping(uint => address) productSaler;              // id -> \r\n    mapping(uint => Product) store;                     // id -> \r\n\r\n    // \r\n    constructor() public {\r\n        productCount = 0;\r\n    }\r\n\r\n    // \r\n    function addProduct(string _name, string _class, string _imageHash, string _descHash, uint _start, uint _end, uint _initPrice) public {\r\n        require(_start < _end, \"\");\r\n        productCount++;\r\n        Product memory product = \r\n            Product(productCount, _name, _class, Status.AVAILABLE, _imageHash, _descHash, _start, _end, _initPrice, 0, 0, 0, 0, 0);\r\n        store[productCount] = product;\r\n        productSaler[productCount] = msg.sender;\r\n    }\r\n\r\n    // \r\n    function getProduct(uint _productID) public view returns(uint, string, string, Status, string, string, uint, uint, uint) {\r\n        Product memory product = store[_productID];\r\n        return (product.id, product.name, product.classification, product.status, \r\n            product.imageHash, product.descriptionHash, product.startTime, product.endTime, product.initPrice);\r\n    }\r\n\r\n    // \r\n    function bidProduct(uint _productID, string _password) public payable returns(bool) {\r\n        Product storage product = store[_productID];\r\n        // \r\n        bytes32 sealedBid = keccak256(bytes(_password));\r\n\r\n        require(block.timestamp >= product.startTime, \"\");\r\n        require(block.timestamp <= product.endTime, \"\" );\r\n        require(msg.value >= product.initPrice, \"\");\r\n        require(product.bidders[msg.sender].addr == 0, \"\");\r\n\r\n        product.bidders[msg.sender] = Bidder(msg.sender, sealedBid, msg.value, false);\r\n        product.bidNum++;\r\n        return true;\r\n    }\r\n\r\n    // \r\n    function revealBid(uint _productID, string _password) public {\r\n        require(block.timestamp > product.endTime, \"\");\r\n        \r\n        // \r\n        bytes32 sealedBid = keccak256(bytes(_password));\r\n        Product storage product = store[_productID];\r\n        Bidder memory bidder = product.bidders[msg.sender];\r\n        \r\n        require(bidder.addr > 0, \"\");\r\n        require(bidder.pwd == sealedBid, \"\");\r\n        require(bidder.revealed == false, \"\");\r\n\r\n        uint refund;\r\n        uint price = bidder.value;\r\n\r\n        if (product.buyer == 0) {\r\n            // \r\n            product.buyer = msg.sender;\r\n            product.topPrice = price;\r\n            product.secondPrice = product.initPrice;\r\n            refund = 0;    // \r\n        } else {\r\n            // \r\n            if (price > product.topPrice) {                \r\n                product.buyer.transfer(product.topPrice);    // \r\n                product.buyer = msg.sender;                     // \r\n                product.secondPrice = product.topPrice;         // \r\n                product.topPrice = price;                       // \r\n                refund = 0;                                     // \r\n                \r\n            } else if (price > product.secondPrice) {\r\n                product.secondPrice = price;                // \r\n                refund = price;                             // out\r\n            } else {\r\n                refund = price;                             // out\r\n            }\r\n        }\r\n\r\n        if (refund > 0) {\r\n            msg.sender.transfer(refund);\r\n        }\r\n        product.bidders[msg.sender].revealed = true;\r\n        product.revealNum++;\r\n    }\r\n\r\n    // \r\n    function endAuction(uint _productID) public {\r\n        Product storage product = store[_productID];\r\n        require(block.timestamp > product.endTime, \"\");\r\n        require(product.status == Status.AVAILABLE, \"\");\r\n        require(product.revealNum == product.bidNum, \"\");\r\n        if (product.buyer > 0) {\r\n            product.buyer.transfer(product.topPrice - product.secondPrice); \r\n            product.status = Status.SOLD;\r\n        } else {\r\n            product.status = Status.UNSOLD;\r\n        }\r\n        \r\n    }\r\n\r\n\r\n    // \r\n    function getBidNum(uint _productID) public view returns(uint count){\r\n        Product memory product = store[_productID];\r\n        count = product.bidNum;\r\n    }\r\n\r\n    // \r\n    function getBuyer(uint _productID) public view returns(address buyer, uint askingPrice, uint paidPrice){\r\n        Product memory product = store[_productID];\r\n        require(product.status != Status.AVAILABLE, \"\");\r\n        buyer = product.buyer;\r\n        askingPrice = product.topPrice;\r\n        paidPrice = product.secondPrice;\r\n    }\r\n\r\n    // \r\n    function getProductNum() public view returns(uint){\r\n        return productCount;\r\n    }\r\n\r\n}\r\n",
  "sourcePath": "C:\\Users\\XW\\Desktop\\auctionDapp\\contracts\\AuctionStore.sol",
  "compiler": {
    "name": "solc",
    "version": "0.4.24+commit.e67f0147.Emscripten.clang"
  },
  "schemaVersion": "2.0.1",
  "updatedAt": "2018-11-23T05:03:46.207Z"
}