{
  "contractName": "FleaMarket",
  "abi": [
    {
      "inputs": [],
      "payable": false,
      "stateMutability": "nonpayable",
      "type": "constructor"
    },
    {
      "constant": false,
      "inputs": [
        {
          "name": "_name",
          "type": "string"
        },
        {
          "name": "_class",
          "type": "string"
        },
        {
          "name": "_price",
          "type": "uint256"
        },
        {
          "name": "_description",
          "type": "string"
        }
      ],
      "name": "addProduct",
      "outputs": [
        {
          "name": "",
          "type": "uint256"
        }
      ],
      "payable": false,
      "stateMutability": "nonpayable",
      "type": "function"
    },
    {
      "constant": false,
      "inputs": [
        {
          "name": "_productID",
          "type": "uint256"
        }
      ],
      "name": "buyProduct",
      "outputs": [
        {
          "name": "",
          "type": "bool"
        }
      ],
      "payable": true,
      "stateMutability": "payable",
      "type": "function"
    },
    {
      "constant": true,
      "inputs": [
        {
          "name": "_productID",
          "type": "uint256"
        }
      ],
      "name": "getProduct",
      "outputs": [
        {
          "name": "",
          "type": "uint256"
        },
        {
          "name": "",
          "type": "string"
        },
        {
          "name": "",
          "type": "string"
        },
        {
          "name": "",
          "type": "uint8"
        },
        {
          "name": "",
          "type": "uint256"
        },
        {
          "name": "",
          "type": "string"
        }
      ],
      "payable": false,
      "stateMutability": "view",
      "type": "function"
    },
    {
      "constant": true,
      "inputs": [
        {
          "name": "_productID",
          "type": "uint256"
        }
      ],
      "name": "getBuyer",
      "outputs": [
        {
          "name": "buyer",
          "type": "address"
        },
        {
          "name": "price",
          "type": "uint256"
        }
      ],
      "payable": false,
      "stateMutability": "view",
      "type": "function"
    },
    {
      "constant": true,
      "inputs": [],
      "name": "getProductNum",
      "outputs": [
        {
          "name": "",
          "type": "uint256"
        }
      ],
      "payable": false,
      "stateMutability": "view",
      "type": "function"
    }
  ],
  "bytecode": "0x608060405234801561001057600080fd5b5060008081905550610ec9806100276000396000f30060806040526004361061006d576000357c0100000000000000000000000000000000000000000000000000000000900463ffffffff1680635bf608b8146100725780636a7c0a90146100e65780638642269e14610111578063b9db15b414610149578063f800d332146102ea575b600080fd5b34801561007e57600080fd5b5061009d600480360381019080803590602001909291905050506103fd565b604051808373ffffffffffffffffffffffffffffffffffffffff1673ffffffffffffffffffffffffffffffffffffffff1681526020018281526020019250505060405180910390f35b3480156100f257600080fd5b506100fb6106c5565b6040518082815260200191505060405180910390f35b61012f600480360381019080803590602001909291905050506106ce565b604051808215151515815260200191505060405180910390f35b34801561015557600080fd5b50610174600480360381019080803590602001909291905050506108bd565b60405180878152602001806020018060200186600181111561019257fe5b60ff16815260200185815260200180602001848103845289818151815260200191508051906020019080838360005b838110156101dc5780820151818401526020810190506101c1565b50505050905090810190601f1680156102095780820380516001836020036101000a031916815260200191505b50848103835288818151815260200191508051906020019080838360005b83811015610242578082015181840152602081019050610227565b50505050905090810190601f16801561026f5780820380516001836020036101000a031916815260200191505b50848103825285818151815260200191508051906020019080838360005b838110156102a857808201518184015260208101905061028d565b50505050905090810190601f1680156102d55780820380516001836020036101000a031916815260200191505b50995050505050505050505060405180910390f35b3480156102f657600080fd5b506103e7600480360381019080803590602001908201803590602001908080601f0160208091040260200160405190810160405280939291908181526020018383808284378201915050505050509192919290803590602001908201803590602001908080601f016020809104026020016040519081016040528093929190818152602001838380828437820191505050505050919291929080359060200190929190803590602001908201803590602001908080601f0160208091040260200160405190810160405280939291908181526020018383808284378201915050505050509192919290505050610bb5565b6040518082815260200191505060405180910390f35b600080610408610d91565b60026000858152602001908152602001600020610100604051908101604052908160008201548152602001600182018054600181600116156101000203166002900480601f0160208091040260200160405190810160405280929190818152602001828054600181600116156101000203166002900480156104cb5780601f106104a0576101008083540402835291602001916104cb565b820191906000526020600020905b8154815290600101906020018083116104ae57829003601f168201915b50505050508152602001600282018054600181600116156101000203166002900480601f01602080910402602001604051908101604052809291908181526020018280546001816001161561010002031660029004801561056d5780601f106105425761010080835404028352916020019161056d565b820191906000526020600020905b81548152906001019060200180831161055057829003601f168201915b505050505081526020016003820160009054906101000a900460ff16600181111561059457fe5b600181111561059f57fe5b815260200160048201548152602001600582018054600181600116156101000203166002900480601f0160208091040260200160405190810160405280929190818152602001828054600181600116156101000203166002900480156106465780601f1061061b57610100808354040283529160200191610646565b820191906000526020600020905b81548152906001019060200180831161062957829003601f168201915b505050505081526020016006820160009054906101000a900473ffffffffffffffffffffffffffffffffffffffff1673ffffffffffffffffffffffffffffffffffffffff1673ffffffffffffffffffffffffffffffffffffffff16815260200160078201548152505090508060c0015192508060800151915050915091565b60008054905090565b600080600060026000858152602001908152602001600020915081600401543410151515610764576040517f08c379a00000000000000000000000000000000000000000000000000000000081526004018080602001828103825260128152602001807fe4bb98e6acbee98791e9a29de4b88de8b6b3000000000000000000000000000081525060200191505060405180910390fd5b338260060160006101000a81548173ffffffffffffffffffffffffffffffffffffffff021916908373ffffffffffffffffffffffffffffffffffffffff16021790555034826007018190555060018260030160006101000a81548160ff021916908360018111156107d157fe5b02179055506001600085815260200190815260200160002060009054906101000a900473ffffffffffffffffffffffffffffffffffffffff1673ffffffffffffffffffffffffffffffffffffffff166108fc83600401549081150290604051600060405180830381858888f19350505050158015610853573d6000803e3d6000fd5b508160040154826007015403905060008111156108b2573373ffffffffffffffffffffffffffffffffffffffff166108fc829081150290604051600060405180830381858888f193505050501580156108b0573d6000803e3d6000fd5b505b600192505050919050565b600060608060008060606108cf610d91565b60026000898152602001908152602001600020610100604051908101604052908160008201548152602001600182018054600181600116156101000203166002900480601f0160208091040260200160405190810160405280929190818152602001828054600181600116156101000203166002900480156109925780601f1061096757610100808354040283529160200191610992565b820191906000526020600020905b81548152906001019060200180831161097557829003601f168201915b50505050508152602001600282018054600181600116156101000203166002900480601f016020809104026020016040519081016040528092919081815260200182805460018160011615610100020316600290048015610a345780601f10610a0957610100808354040283529160200191610a34565b820191906000526020600020905b815481529060010190602001808311610a1757829003601f168201915b505050505081526020016003820160009054906101000a900460ff166001811115610a5b57fe5b6001811115610a6657fe5b815260200160048201548152602001600582018054600181600116156101000203166002900480601f016020809104026020016040519081016040528092919081815260200182805460018160011615610100020316600290048015610b0d5780601f10610ae257610100808354040283529160200191610b0d565b820191906000526020600020905b815481529060010190602001808311610af057829003601f168201915b505050505081526020016006820160009054906101000a900473ffffffffffffffffffffffffffffffffffffffff1673ffffffffffffffffffffffffffffffffffffffff1673ffffffffffffffffffffffffffffffffffffffff1681526020016007820154815250509050806000015181602001518260400151836060015184608001518560a001518494508393508090509650965096509650965096505091939550919395565b6000610bbf610d91565b600080815480929190600101919050555061010060405190810160405280600054815260200187815260200186815260200160006001811115610bfe57fe5b8152602001858152602001848152602001600073ffffffffffffffffffffffffffffffffffffffff16815260200160008152509050806002600080548152602001908152602001600020600082015181600001556020820151816001019080519060200190610c6e929190610df8565b506040820151816002019080519060200190610c8b929190610df8565b5060608201518160030160006101000a81548160ff02191690836001811115610cb057fe5b02179055506080820151816004015560a0820151816005019080519060200190610cdb929190610df8565b5060c08201518160060160006101000a81548173ffffffffffffffffffffffffffffffffffffffff021916908373ffffffffffffffffffffffffffffffffffffffff16021790555060e0820151816007015590505033600160008054815260200190815260200160002060006101000a81548173ffffffffffffffffffffffffffffffffffffffff021916908373ffffffffffffffffffffffffffffffffffffffff160217905550600054915050949350505050565b6101006040519081016040528060008152602001606081526020016060815260200160006001811115610dc057fe5b81526020016000815260200160608152602001600073ffffffffffffffffffffffffffffffffffffffff168152602001600081525090565b828054600181600116156101000203166002900490600052602060002090601f016020900481019282601f10610e3957805160ff1916838001178555610e67565b82800160010185558215610e67579182015b82811115610e66578251825591602001919060010190610e4b565b5b509050610e749190610e78565b5090565b610e9a91905b80821115610e96576000816000905550600101610e7e565b5090565b905600a165627a7a723058204806e398ce0a67f6cce77658651835a4b48705b5071b2e922bfecf9702c74d420029",
  "source": "//solium-disable linebreak-style\r\npragma solidity ^0.4.17;\r\n\r\ncontract FleaMarket {\r\n\r\n    // 商品状态 - 用于描述商品信息\r\n    enum Status {\r\n        AVAILABLE,  // 可购买\r\n        SOLD        // 已售出\r\n    }\r\n\r\n    // 商品信息\r\n    struct Product{\r\n        uint id;                    // 商品ID\r\n\r\n        string name;                // 商品名字\r\n        string classification;      // 商品分类\r\n        Status status;              // 商品状态\r\n        uint price;                 // 商品价格\r\n        string description;         // 商品描述\r\n        // string imageHash;        // 商品图片哈希\r\n\r\n        address buyer;              // 购买者地址\r\n        uint buyPrice;              // 购买者出价\r\n    }\r\n\r\n    uint productCount;                      // 统计商品的数量\r\n    mapping(uint => address) productSaler;  // 商品id -> 卖家地址\r\n    mapping(uint => Product) store;         // 商品id -> 商品对象\r\n\r\n\r\n    // mapping(address => bytes32) users;        // 记录用户的密码\r\n\r\n    // 构造函数\r\n    constructor() public {\r\n        productCount = 0;\r\n    }\r\n\r\n    // 注册用户\r\n    // function register(string _password) public returns(bool) {\r\n    //     if (users[msg.sender] > 0)\r\n    //         return false;\r\n\r\n    //     bytes32 encryption = keccak256(bytes(_password));    // 对密码进行加密\r\n    //     users[msg.sender] = encryption;\r\n    //     return true;\r\n    // }\r\n\r\n    // 发布商品，返回发布id\r\n    function addProduct(string _name, string _class, uint _price, string _description) public returns(uint){\r\n        // require(users[msg.sender] > 0, \"您尚未注册\");\r\n        // require(keccak256(bytes(_password)) == users[msg.sender], \"密码不正确\");        \r\n        productCount++;       \r\n        Product memory product = \r\n            Product(productCount, _name, _class, Status.AVAILABLE, _price, _description, 0, 0);       \r\n        store[productCount] = product;\r\n        productSaler[productCount] = msg.sender;\r\n        return productCount;\r\n    }\r\n\r\n    // 购买商品，完成交易，更改商品信息\r\n    function buyProduct(uint _productID) public payable returns(bool) {\r\n        // require(users[msg.sender] > 0, \"您尚未注册\");\r\n        // require(keccak256(bytes(_password)) == users[msg.sender], \"密码不正确\");        \r\n        Product storage product = store[_productID];\r\n        require(msg.value >= product.price, \"付款金额不足\");\r\n\r\n        product.buyer = msg.sender;\r\n        product.buyPrice = msg.value;\r\n        product.status = Status.SOLD;\r\n\r\n        productSaler[_productID].transfer(product.price);\r\n        uint refund = product.buyPrice - product.price;\r\n        if (refund > 0) {\r\n            msg.sender.transfer(refund);\r\n        }\r\n\r\n        return true;\r\n    }\r\n\r\n    // 获取商品信息(商品ID， 名字， 分类， 状态uint， 价格， 描述)\r\n    function getProduct(uint _productID) public view returns(uint, string, string, Status, uint, string) {\r\n        Product memory product = store[_productID];\r\n        return (product.id, product.name, product.classification, product.status, \r\n            product.price, product.description);\r\n    }\r\n\r\n    // 获取某件商品的购买者\r\n    function getBuyer(uint _productID) public view returns(address buyer, uint price){\r\n        Product memory product = store[_productID];\r\n        buyer = product.buyer;\r\n        price = product.price;\r\n    }\r\n\r\n    // 获取当前商品数量\r\n    function getProductNum() public view returns(uint){\r\n        return productCount;\r\n    }\r\n\r\n}",
  "sourcePath": "C:\\Users\\XW\\Desktop\\Study\\大三上\\区块链原理与技术\\期末项目Github\\Github文档\\FleaMarketDapp\\contracts\\FleaMarket.sol",
  "compiler": {
    "name": "solc",
    "version": "0.4.24+commit.e67f0147.Emscripten.clang"
  },
  "schemaVersion": "2.0.1",
  "updatedAt": "2018-12-25T17:53:15.879Z"
}