{
  "contractName": "Voting",
  "abi": [
    {
      "constant": true,
      "inputs": [
        {
          "name": "",
          "type": "bytes32"
        }
      ],
      "name": "votesReceived",
      "outputs": [
        {
          "name": "",
          "type": "uint8"
        }
      ],
      "payable": false,
      "stateMutability": "view",
      "type": "function"
    },
    {
      "constant": true,
      "inputs": [
        {
          "name": "",
          "type": "uint256"
        }
      ],
      "name": "candidateList",
      "outputs": [
        {
          "name": "",
          "type": "bytes32"
        }
      ],
      "payable": false,
      "stateMutability": "view",
      "type": "function"
    },
    {
      "inputs": [
        {
          "name": "candidateNames",
          "type": "bytes32[]"
        }
      ],
      "payable": false,
      "stateMutability": "nonpayable",
      "type": "constructor"
    },
    {
      "constant": true,
      "inputs": [],
      "name": "totalCandidate",
      "outputs": [
        {
          "name": "",
          "type": "uint8"
        }
      ],
      "payable": false,
      "stateMutability": "view",
      "type": "function"
    },
    {
      "constant": true,
      "inputs": [
        {
          "name": "candidate",
          "type": "bytes32"
        }
      ],
      "name": "totalVotesFor",
      "outputs": [
        {
          "name": "",
          "type": "uint8"
        }
      ],
      "payable": false,
      "stateMutability": "view",
      "type": "function"
    },
    {
      "constant": false,
      "inputs": [
        {
          "name": "candidate",
          "type": "bytes32"
        }
      ],
      "name": "voteForCandidate",
      "outputs": [],
      "payable": false,
      "stateMutability": "nonpayable",
      "type": "function"
    },
    {
      "constant": true,
      "inputs": [
        {
          "name": "candidate",
          "type": "bytes32"
        }
      ],
      "name": "validCandidate",
      "outputs": [
        {
          "name": "",
          "type": "bool"
        }
      ],
      "payable": false,
      "stateMutability": "view",
      "type": "function"
    }
  ],
  "bytecode": "0x608060405234801561001057600080fd5b50604051610557380380610557833981018060405281019080805182019291905050508060019080519060200190610049929190610070565b50600180549050600260006101000a81548160ff021916908360ff160217905550506100e8565b8280548282559060005260206000209081019282156100b2579160200282015b828111156100b1578251829060001916905591602001919060010190610090565b5b5090506100bf91906100c3565b5090565b6100e591905b808211156100e15760008160009055506001016100c9565b5090565b90565b610460806100f76000396000f300608060405260043610610078576000357c0100000000000000000000000000000000000000000000000000000000900463ffffffff1680631812dab41461007d5780632f265cf7146100ae578063392e6678146100f95780637021939f14610142578063b13c744b1461018d578063cc9ab267146101d6575b600080fd5b34801561008957600080fd5b50610092610207565b604051808260ff1660ff16815260200191505060405180910390f35b3480156100ba57600080fd5b506100dd600480360381019080803560001916906020019092919050505061021e565b604051808260ff1660ff16815260200191505060405180910390f35b34801561010557600080fd5b5061012860048036038101908080356000191690602001909291905050506102cc565b604051808215151515815260200191505060405180910390f35b34801561014e57600080fd5b50610171600480360381019080803560001916906020019092919050505061032b565b604051808260ff1660ff16815260200191505060405180910390f35b34801561019957600080fd5b506101b86004803603810190808035906020019092919050505061034b565b60405180826000191660001916815260200191505060405180910390f35b3480156101e257600080fd5b50610205600480360381019080803560001916906020019092919050505061036e565b005b6000600260009054906101000a900460ff16905090565b6000610229826102cc565b151561029d576040517f08c379a00000000000000000000000000000000000000000000000000000000081526004018080602001828103825260128152602001807fe4b88de698afe59088e6b395e794a8e688b7000000000000000000000000000081525060200191505060405180910390fd5b600080836000191660001916815260200190815260200160002060009054906101000a900460ff169050919050565b600080600090505b6001805490508110156103205782600019166001828154811015156102f557fe5b90600052602060002001546000191614156103135760019150610325565b80806001019150506102d4565b600091505b50919050565b60006020528060005260406000206000915054906101000a900460ff1681565b60018181548110151561035a57fe5b906000526020600020016000915090505481565b610377816102cc565b15156103eb576040517f08c379a00000000000000000000000000000000000000000000000000000000081526004018080602001828103825260128152602001807fe4b88de698afe59088e6b395e794a8e688b7000000000000000000000000000081525060200191505060405180910390fd5b6001600080836000191660001916815260200190815260200160002060008282829054906101000a900460ff160192506101000a81548160ff021916908360ff160217905550505600a165627a7a723058205d079dc20206a3372ef7c8d7137e0e78ba716a4a75a0062498133494810021a90029",
  "source": "//solium-disable linebreak-style\r\npragma solidity ^0.4.17;\r\n\r\ncontract Voting {\r\n\r\n    mapping (bytes32 => uint8) public votesReceived;\r\n    bytes32[] public candidateList;\r\n    uint8 candidateCount;\r\n\r\n    constructor (bytes32[] candidateNames) public {\r\n        candidateList = candidateNames;\r\n        candidateCount = uint8(candidateList.length);\r\n    }\r\n\r\n    function totalCandidate() public view returns (uint8) {\r\n        return candidateCount;\r\n    }\r\n\r\n    function totalVotesFor(bytes32 candidate) public view returns (uint8) {\r\n        require(validCandidate(candidate), \"不是合法用户\");\r\n        return votesReceived[candidate];\r\n    }\r\n\r\n    function voteForCandidate(bytes32 candidate) public {\r\n        require(validCandidate(candidate), \"不是合法用户\");\r\n        votesReceived[candidate] += 1;\r\n    }\r\n\r\n    function validCandidate(bytes32 candidate) public view returns (bool) {\r\n        for(uint i = 0; i < candidateList.length; i++) {\r\n            if (candidateList[i] == candidate) {\r\n                return true;\r\n            }\r\n        }\r\n        return false;\r\n    }\r\n}",
  "sourcePath": "C:\\Users\\XW\\Desktop\\auctionDapp\\contracts\\Voting.sol",
  "compiler": {
    "name": "solc",
    "version": "0.4.24+commit.e67f0147.Emscripten.clang"
  },
  "schemaVersion": "2.0.1",
  "updatedAt": "2018-12-21T16:05:24.643Z"
}